:020000040800F2
:1000000000500020752D0008B1050008B305000858
:10001000B5050008B7050008B90500080000000094
:10002000000000000000000000000000BB05000808
:10003000BD05000800000000BF050008C10500085C
:10004000BD2D0008BD2D0008BD2D0008BD2D0008E8
:10005000BD2D0008BD2D0008BD2D0008BD2D0008D8
:10006000BD2D0008BD2D0008BD2D0008BD2D0008C8
:10007000BD2D0008BD2D0008BD2D0008BD2D0008B8
:10008000BD2D0008BD2D0008BD2D0008BD2D0008A8
:10009000C9050008BD2D0008BD2D0008BD2D0008B4
:1000A000BD2D0008BD2D0008BD2D0008BD2D000888
:1000B000BD2D0008BD2D0008BD2D0008BD2D000878
:1000C000BD2D0008BD2D0008BD2D0008BD2D000868
:1000D000BD2D0008BD2D0008BD2D0008BD2D000858
:1000E000BD2D0008BD2D0008BD2D0008000000003A
:1000F0000000000000000000000000000000000000
:0C01000000000000000000005FF808F1A3
:10010C0010B5054C237833B9044B13B10448AFF345
:10011C0000800123237010BD44010020000000006A
:10012C00082E000808B5034B1BB103490348AFF375
:10013C00008008BD0000000048010020082E0008C7
:10014C0082B00A4B9A6942F020029A619A6902F0D5
:10015C0020020092009A9A6942F004029A619B690B
:10016C0003F004030193019B02B07047001002409E
:10017C0070B594B000240D940F94109405940694CB
:10018C00079408940994019402940394049401250F
:10019C000A954FF480330B930C940E95022611960E
:1001AC0012934FF4801313930AA801F029FC0F2328
:1001BC000593069607944FF4806308930994294697
:1001CC0005A801F05BFE102301934FF48003049308
:1001DC0001A801F009FF14B070BD000000B583B098
:1001EC0001F0C0FBFFF7C4FFFFF7AAFF00F026F8F1
:1001FC000F491923CB7004230B710B234B710C2368
:10020C008B710723CB710B4C0822204602F098FD12
:10021C00642001F0CBFB0023009301930822694674
:10022C00204602F08DFD642001F0C0FBE0E700BF2A
:10023C0060010020800100207047000008B50022FA
:10024C000B490C4801F0EAFF48B90B49094801F089
:10025C00FCFF38B9074801F0FFFF30B908BDFFF7C4
:10026C00EBFFF2E7FFF7E8FFF4E7FFF7E5FFF5E751
:10027C00000000208001002088000020022805D802
:10028C00DFE800F0050402000120704702207047EF
:10029C0002680E4B9A4200D0704700B583B003F54C
:1002AC00DA33DA6942F40002DA61DB6903F4000341
:1002BC000193019B00221146142001F031FF142000
:1002CC0001F062FF03B05DF804FB00BF005C00406E
:1002DC0008B500F50C71D0F8680201F0D5FF08BD27
:1002EC0008B500EB4113D3F83C21D0F8680201F0BB
:1002FC00F8FF08BD08B500EB4113DA6BD0F86802C3
:10030C0002F035F808BD08B5D0F8680202F0D6F84E
:10031C0008BD10B504468368022B09D10121D4F81D
:10032C00680202F0B4F8D4F8680202F088F810BD44
:10033C00FFF782FFF2E7000010B50446D0F8680220
:10034C0002F0A8F8A36923B1024A136943F006032B
:10035C00136110BD00ED00E008B5D0F8680202F0A2
:10036C00A2F808BD10B504461648C0F86842C4F897
:10037C00C002154B036008234360022383600023F3
:10038C008361C361036200F043F9B8B918230022FA
:10039C001146D4F8C00200F076FD582300228021CB
:1003AC00D4F8C00200F06FFD4FF48073002281215D
:1003BC00D4F8C00200F067FD002010BDFFF73CFF31
:1003CC00E4E700BF44040020005C004008B5D0F80E
:1003DC00C00200F097F9FFF751FF08BD10B51446A5
:1003EC001A462346D0F8C00200F0B7F9FFF746FFD3
:1003FC0010BD08B5D0F8C00200F0E7F9FFF73EFFDA
:10040C0008BD08B5D0F8C00200F0CFFCFFF736FFEE
:10041C0008BD08B5D0F8C00200F0FEFCFFF72EFFB7
:10042C0008BDD0F8C03211F0800F06D101F07F0169
:10043C0003EB411191F82A01704701F07F0103EBA6
:10044C00411191F82A00704708B5D0F8C00200F0AD
:10045C0070F9FFF713FF08BD08B5D0F8C00200F023
:10046C0002FAFFF70BFF08BD08B5D0F8C00200F088
:10047C00DAF9FFF703FF08BD004870476801002058
:10048C007047704712230B80004870471C000020F7
:10049C0004230B8000487047300000200023934257
:1004AC0017D230B40BE0373401F8134000015C0074
:1004BC00013400250D550133DBB2934207D2040FF2
:1004CC00B0F1204FEFD2303401F81340EEE730BCDE
:1004DC007047704738B50A4B186804331C680433EE
:1004EC001B68C01800D138BD064D0822A91CFFF7A7
:1004FC00D5FF042205F112012046FFF7CFFFF2E7EA
:10050C00E8F7FF1F3400002008B51A230B80FFF713
:10051C00E1FF014808BD00BF3400002008B50A46C1
:10052C0028B90549054802F0EEFA034808BD02490E
:10053C00024802F0E8FAF8E7B0060020202E000886
:10054C0010B50A46034C2146034802F0DCFA20465B
:10055C0010BD00BFB0060020382E000808B50A46B2
:10056C0028B90549054802F0CEFA034808BD0249EE
:10057C00024802F0C8FAF8E7B00600204C2E00083A
:10058C0008B50A4628B90549054802F0BCFA0348E3
:10059C0008BD0249024802F0B6FAF8E7B00600209E
:1005AC00582E00087047FEE7FEE7FEE7FEE77047AF
:1005BC007047704708B501F0E7F908BD08B5024867
:1005CC0000F038FB08BD00BF4404002082B00E4B85
:1005DC009A6942F001029A619A6902F00102009252
:1005EC00009ADA6942F08052DA61DB6903F08053D9
:1005FC000193019B054A536823F0E06343F00073B9
:10060C00536002B0704700BF001002400000014070
:10061C00F0B587B0002873D0054690F82932DBB1CD
:10062C00032385F82932286800F055FC2C4654F831
:10063C00107B6E460FCC0FC6236833602B1D0ECB80
:10064C00384600F038FC044658B1022385F82932AC
:10065C000124204607B0F0BD80F82832FFF718FEC1
:10066C00DEE70021286800F040FC234611E005EB92
:10067C004312012182F8291082F82830D3860021F8
:10068C0082F82B109163D1639A1C5201A95001334B
:10069C00DBB269688B42EAD312E005EB441200230B
:1006AC0082F8293182F8284182F82B31C2F838318E
:1006BC00C2F83C3104F10A025201AB500134E4B2ED
:1006CC00A142EAD82C4654F8107B6E460FCC0FC6CC
:1006DC00236833602B1D0ECB384600F008FC044613
:1006EC0020B1022385F829320124B2E7002385F8D2
:1006FC002430012385F82932286800F031FFA8E75F
:10070C000124A6E790F82832012B10D010B504462E
:10071C00012180F82812FFF7B4FE206800F01EFFBC
:10072C00206800F0CFFB002084F8280210BD0220C6
:10073C00704790F82832012B0DD010B504460123D8
:10074C0080F8283280F82410006800F001FF0020A7
:10075C0084F8280210BD0220704770B505460C467F
:10076C0011F0800F21D101F00700400100F59471C8
:10077C0029442844002680F8296104F007040C70F1
:10078C000A61CB704A7802B1CC81022B18D095F853
:10079C002832012B17D0012385F82832286800F065
:1007AC00BCFB002085F8280270BD01F00700400159
:1007BC0000F1280129442844012680F82960DCE74F
:1007CC0000230B71E3E70220EEE710B504460B465D
:1007DC0011F0800F1AD101F00702520102F5947149
:1007EC0001440244002082F8290103F007030B7036
:1007FC0094F82832012B14D0012384F82832206875
:10080C0000F046FD002084F8280210BD01F007021C
:10081C00520102F1280101440244012082F829000E
:10082C00E3E70220F1E770B501F00704650105F577
:10083C00947101440544C5F83C2104F10A025601A7
:10084C0000EB421283510023536085F8293185F85F
:10085C00284124B9006800F09EFE002070BD00689D
:10086C0000F099FEF9E770B501F00704650105F198
:10087C00280101440544EA63A21C560100EB421214
:10088C00835100235360012385F8293085F82840D3
:10089C0024B9006800F07FFE002070BD006800F0F5
:1008AC007AFEF9E7F8B50546ADE003889BB223F470
:1008BC00E14323F070036FEA43436FEA53439BB267
:1008CC0003802A68B2F850309BB295F8281003EBDD
:1008DC00C103023302EB4303B3F80034C3F309033F
:1008EC006B64EA6B1344EB6300212846FFF702FDAF
:1008FC0095F82430002B00F086802B6C002B40F0F8
:10090C00828095F824302A6843F08003A2F84C309A
:10091C00002385F8243076E0B0F850309BB295F87F
:10092C00282103EBC203063300EB4303B3F8003476
:10093C00C3F30903C5F84431B5F82E2105F50C7144
:10094C0000F0D2FF2A68138823F070031B051B0DDF
:10095C0043F0800313802846FFF7BAFC53E03E2A8D
:10096C0009D8510812F0010F00D00131890289B267
:10097C00A3F80C14A8E0510912F01F0F00D1013993
:10098C006FEAC1626FEA524292B2A3F80C249BE068
:10099C0030F824309FB213F4004F40F0A48017F0CD
:1009AC00800F30D02A6832F824309BB223F4E14314
:1009BC0023F070036FEA43436FEA53439BB222F870
:1009CC0024302A68B2F850309BB205EB441191F8F0
:1009DC00280003EBC003023302EB4303B3F80024FB
:1009EC00C2F30902A31C580105EB43135A60CB6BED
:1009FC001A44CA632B58002B40F0128191F828102E
:100A0C002846FFF777FC2868B0F8443013F4004F01
:100A1C0000F00E81B0F84440A3B214F00F04B7D12B
:100A2C0013F0100F3FF441AF03889AB213F4006F28
:100A3C007FF472AF12F4004FE5D0038823F07003FB
:100A4C001B051B0D43F0800303802868B0F8503061
:100A5C009BB295F8282103EBC203063300EB43034A
:100A6C00B3F80034C3F30903C5F844318BB1D5F89E
:100A7C003C1171B1B5F82E2100F036FFD5F84421A8
:100A8C00D5F83C311344C5F83C3100212846FFF71A
:100A9C0027FC2A68B2F850309BB21344D5F83821A1
:100AAC00002A7FF45CAFB3F80C2492B222F4F84223
:100ABC0092B2A3F80C24B3F80C246FEA42426FEA0A
:100ACC00524292B2A3F80C242A6813889BB223F4E6
:100ADC00804323F0700383F4405343F4004343F00A
:100AEC00800313808FE730F8243023F070031B054C
:100AFC001B0D43F0800320F8243005EB441393F8CE
:100B0C003431DBB92868B0F850309BB205EB441295
:100B1C0092F8282103EBC203063300EB4303B3F82E
:100B2C000064C6F3090696B305EB44113346B1F8DD
:100B3C002E21D1F83C1100F0D7FE28E0286805EBF7
:100B4C00441393F8282130F8223013F4804F47D007
:100B5C00B0F850309BB203EBC203023300EB4303FB
:100B6C00B3F80064C6F3090686BB2A6805EB441388
:100B7C0093F8281132F821309BB223F4E04323F090
:100B8C00700343F4004343F0C00322F8213004F116
:100B9C000A03590105EB43135A6832445A6005EBBA
:100BAC004413D3F83C213244C3F83C216B582BB18D
:100BBC0005EB4411D1F838118E4229D205EB4413C0
:100BCC0093F828112846FFF78BFBE8E605EB441158
:100BDC003346B1F83021D1F83C1100F085FEC4E762
:100BEC00B0F850309BB203EBC203063300EB430367
:100BFC00B3F80064C6F30906002EB6D005EB441119
:100C0C003346B1F83221D1F83C1100F06DFEACE75F
:100C1C0005EB441191F828112846FFF704FEBEE6B7
:100C2C0005EB441494F828102846FFF71CFEEAE65E
:100C3C000020F8BD10B50446006800F093FC10F4D9
:100C4C00004F45D1206800F08DFC10F4806F43D12B
:100C5C00206800F087FC10F4804F08D02268B2F8AE
:100C6C0044309BB223F480439BB2A2F844302068FA
:100C7C0000F078FC10F4005F08D02268B2F8443021
:100C8C009BB223F400539BB2A2F84430206800F0CE
:100C9C0069FC10F4805F30D1206800F063FC10F424
:100CAC00006F49D1206800F05DFC10F4007F6FD11B
:100CBC00206800F057FC10F4807F08D02268B2F84E
:100CCC0044309BB223F480739BB2A2F8443010BD25
:100CDC002046FFF7E7FDB5E72268B2F844309BB237
:100CEC0023F480639BB2A2F844302046FFF711FB3B
:100CFC0000212046FFF71DFDAAE72268B2F840301C
:100D0C009BB223F004039BB2A2F840302268B2F8E5
:100D1C0040309BB223F008039BB2A2F8403020462F
:100D2C00FFF71AFB2268B2F844309BB223F48053CD
:100D3C009BB2A2F84430AFE72268B2F840309BB2C5
:100D4C0043F00803A2F840302268B2F844309BB25A
:100D5C0023F400639BB2A2F844302268B2F840300E
:100D6C009BB243F00403A2F84030206800F0FAFB79
:100D7C0010F4805F08D02268B2F844309BB223F4A0
:100D8C0080539BB2A2F844302046FFF7D5FA89E78E
:100D9C002268B2F844309BB223F400739BB2A2F8E1
:100DAC0044302046FFF7AFFA82E738B501F007056B
:100DBC0043689D422CD8044611F0800F19D14B0189
:100DCC0003F5947101440344002283F82921012383
:100DDC008B700D7094F82832012B1BD0012384F8F2
:100DEC002832206800F03EFB65B1002084F8280210
:100DFC0038BD6B0103F1280101440344012283F83F
:100E0C002920E4E704F50C71206800F0AFFBECE757
:100E1C000120EDE70220EBE70B4601F00F014268E1
:100E2C0091422CD810B5044613F0800F1CD103F05E
:100E3C000702520102F5947101440244002082F829
:100E4C00290100228A7003F007030B7094F82832F2
:100E5C00012B16D0012384F82832206800F027FBE0
:100E6C00002084F8280210BD03F00702520102F1A1
:100E7C00280101440244012082F82900E1E7012005
:100E8C0070470220EFE711F0800F09D001F0070145
:100E9C0049012831014442B90A73CB8000207047C4
:100EAC00490101F594710144F5E701220A730B81A4
:100EBC001B0C4B81F2E784B001A880E80E000020E7
:100ECC0004B07047B0F840309BB243F43F43A0F8F5
:100EDC00403000207047B0F8403023F47C535B0462
:100EEC005B0CA0F84030002070470020704784B0A5
:100EFC0038B505AD85E80E000123A0F8403000257B
:100F0C00A0F84050A0F84450A0F85050FFF7DAFF7A
:100F1C002846BDE8384004B0704730B403460C781E
:100F2C0030F8242092B222F4EC4222F0700292B2F9
:100F3C00C87803285AD8DFE800F04E55025100203B
:100F4C0048F280052A4323F824200C7833F8242017
:100F5C0092B222F4E04222F0700222432A4323F898
:100F6C0024200A7B002A40F0B6804A78002A4ED012
:100F7C00B3F8502092B21A440C7802EB0412CC88CD
:100F8C0064086400A2F800440C7833F8242012F0B2
:100F9C00400F0CD033F8242092B222F4E04222F01D
:100FAC00700242F4004242F0C00223F82420CA78B6
:100FBC00012A1DD0097833F8212092B222F4E042A4
:100FCC0022F0400282F0200242F4004242F0800201
:100FDC0023F8212064E042F40072B1E742F4C062CD
:100FEC000020ADE742F480620020A9E70120A7E7CA
:100FFC00097833F8212092B222F4E04222F0400228
:10100C0042F4004242F0800223F8212048E0B3F879
:10101C00502092B21A440C7802EB0412CC8864086B
:10102C006400A2F80844B3F8502092B21A440C7829
:10103C0002EB04120C69ACBBB2F80C44A4B224F45D
:10104C00F844A4B2A2F80C44B2F80C446FEA44443D
:10105C006FEA5444A4B2A2F80C440C7833F8242060
:10106C0012F4804F0CD033F8242092B222F4E042D8
:10107C0022F0700242F4404242F0800223F8242015
:10108C00097833F8212092B222F4804222F07002C7
:10109C0082F4405242F4004242F0800223F82120B4
:1010AC0030BC70473E2C09D8650814F0010F00D0F5
:1010BC000135AD02ADB2A2F80C54CEE7650914F0BF
:1010CC001F0F00D1013D6FEAC5646FEA5444A4B20E
:1010DC00A2F80C44C1E70C7833F8242092B222F425
:1010EC00E04222F0700242F4014242F0800223F806
:1010FC002420B3F8502092B21A440C7802EB04125C
:10110C000C8964086400A2F80044B3F8502092B231
:10111C001A440C7802EB04124C8964086400A2F89F
:10112C0008444A78002A4ED10C7833F8242012F463
:10113C00804F0CD033F8242092B222F4E04222F0FB
:10114C00700242F4404242F0800223F824200C78D2
:10115C0033F8242012F0400F0CD033F8242092B234
:10116C0022F4E04222F0700242F4004242F0C0024B
:10117C0023F824200C7833F8242092B222F4E04295
:10118C0022F0700242F4004242F0C00223F8242004
:10119C000D7833F8252092B222F4804222F07002AE
:1011AC0082F4405248F28004224323F82520097827
:1011BC0033F8212092B222F4E04222F04002224382
:1011CC0023F821206CE70C7833F8242012F4804F9C
:1011DC000CD033F8242092B222F4E04222F07002B8
:1011EC0042F4404242F0800223F824200C7833F879
:1011FC00242012F0400F0CD033F8242092B222F4A9
:10120C00E04222F0700242F4004242F0C00223F8A5
:10121C0024200C7833F8242092B222F4E04222F0FD
:10122C00700242F4404242F0800223F82420CA7833
:10123C00012A1ED00C7833F8242092B222F4E0421A
:10124C0022F0400282F0200242F4004242F080027E
:10125C0023F82420097833F8212092B222F480421A
:10126C0022F0700242F4004242F0800223F8212066
:10127C0016E70C7833F8242092B222F4E04222F0E4
:10128C00400242F4004242F0800223F82420E1E7BD
:10129C000B7B002B46D14B7813B30A7830F82230F5
:1012AC0013F0400F0CD030F822309BB223F4E04303
:1012BC0023F0700343F4004343F0C00320F82230C2
:1012CC000A7830F822309BB223F4E04323F0400339
:1012DC0043F4004343F0800320F822300020704791
:1012EC000A7830F8223013F4804F0CD030F82230CA
:1012FC009BB223F4E04323F0700343F4404343F0E8
:10130C00800320F822300A7830F822309BB223F484
:10131C00804323F0700343F4004343F0800320F830
:10132C002230DBE710B44B78002B4ED10A7830F822
:10133C00223013F4804F0CD030F822309BB223F4BF
:10134C00E04323F0700343F4404343F0800320F860
:10135C0022300A7830F8223013F0400F0CD030F8DD
:10136C0022309BB223F4E04323F0700343F4004398
:10137C0043F0C00320F822300A7830F822309BB2B8
:10138C0023F4E04323F0700343F4004343F0C00321
:10139C0020F822300B7830F8232092B222F48042CD
:1013AC0022F0700248F28004224320F823200A78AD
:1013BC0030F822309BB223F4E04323F04003234364
:1013CC0020F82230002010BC70470A7830F8223008
:1013DC0013F4804F0CD030F822309BB223F4E0434E
:1013EC0023F0700343F4404343F0800320F8223091
:1013FC000A7830F8223013F0400F0CD030F822303D
:10140C009BB223F4E04323F0700343F4004343F016
:10141C00C00320F822300A7830F822309BB223F433
:10142C00E04323F0700343F4404343F0800320F87F
:10143C0022300B7830F8232092B222F4E04222F0D2
:10144C00400248F28004224320F823200A7830F826
:10145C0022309BB223F4804323F07003234320F803
:10146C002230AFE74B788BB10A7830F822309BB240
:10147C0023F4E04323F0400383F0100343F40043D0
:10148C0043F0800320F82230002070470A7830F8AF
:10149C0022309BB223F4804323F0700383F48053F7
:1014AC0043F4004343F0800320F82230ECE70B7B3D
:1014BC00002B4BD14B7833B30A7830F8223013F031
:1014CC00400F0CD030F822309BB223F4E04323F0D1
:1014DC00700343F4004343F0C00320F82230CB7870
:1014EC00012B33D00A7830F822309BB223F4E0433E
:1014FC0023F0400383F0200343F4004343F08003C4
:10150C0020F8223022E00A7830F8223013F4804F91
:10151C000CD030F822309BB223F4E04323F070035C
:10152C0043F4404343F0800320F822300A7830F82B
:10153C0022309BB223F4804323F0700383F4405396
:10154C0043F4004343F0800320F82230002070471E
:10155C0011B98023A0F84C30002070470020704750
:10156C0000207047B0F8440080B2704700207047EC
:10157C0010B45C1C640800EB420202F5806244B1BA
:10158C000B78487843EA002322F8043B0231013CF3
:10159C00F5E710BC704770B505460C464978012933
:1015AC0037D0A26923699A4240F20A81D21AA26109
:1015BC00227B002A40F02181B5F8502092B22A44B7
:1015CC00217802EB0112002B40F0FE80B2F80C34B3
:1015DC009BB223F4F8439BB2A2F80C34B2F80C344F
:1015EC006FEA43436FEA53439BB2A2F80C34227860
:1015FC0035F822309BB223F4804323F0700383F43C
:10160C00405343F4004343F0800325F8223000207C
:10161C0070BDA26923699A4224D9D21AA261227B95
:10162C0022B3227835F8220010F0400F79D000292F
:10163C0046D1B5F8501089B2294401EB021233BBE4
:10164C00B2F80C1489B221F4F84189B2A2F80C1446
:10165C00B2F80C146FEA41416FEA514189B2A2F819
:10166C000C1436E00023A3611346D8E79EB2334630
:10167C00E28861692846FFF77BFFB5F850309BB2D2
:10168C002B44227803EB0213A3F8046438E03E2BBE
:10169C0009D8590813F0010F00D00131890289B221
:1016AC00A2F80C1415E0590913F01F0F00D10139E1
:1016BC006FEAC1616FEA514189B2A2F80C1408E0DB
:1016CC00B5F8501089B2294401EB021299B2A2F874
:1016DC000C1462899BB261692846FFF749FF637855
:1016EC00002B5CD1227835F822309BB223F4E043F6
:1016FC0023F0700343F4004343F0C00325F8223079
:10170C00227835F822309BB223F4E04323F04003D7
:10171C0083F0300343F4004343F0800325F8223078
:10172C0075E789BBB5F8501089B2294401EB021258
:10173C008BB9B2F8041489B221F4F84189B2A2F839
:10174C000414B2F804146FEA41416FEA514189B2B2
:10175C00A2F8041421E03E2B09D8590813F0010F0C
:10176C0000D00131890289B2A2F8041415E059099C
:10177C0013F01F0F00D101396FEAC1616FEA5141BB
:10178C0089B2A2F8041408E0B5F8501089B22944C3
:10179C0001EB021299B2A2F8041422899AE7012BE8
:1017AC00AED1227835F822309BB223F4E04323F0FB
:1017BC00700343F4404343F0800325F822309FE745
:1017CC000023A3611346F3E63E2B09D8590813F006
:1017DC00010F00D00131890289B2A2F80C1406E77E
:1017EC00590913F01F0F00D101396FEAC1616FEA7B
:1017FC00514189B2A2F80C14F9E6C1B9B5F85020E0
:10180C0092B22A44217802EB01126BBBB2F8041499
:10181C0089B221F4F84189B2A2F80414B2F8041484
:10182C006FEA41416FEA514189B2A2F8041462781F
:10183C00002A4BD1B5F8502092B22A44217802EB01
:10184C00011253BBB2F80C349BB223F4F8439BB295
:10185C00A2F80C34B2F80C346FEA43436FEA5343EA
:10186C009BB2A2F80C34C2E63E2B09D8590813F0EF
:10187C00010F00D00131890289B2A2F80414D6E715
:10188C00590913F01F0F00D101396FEAC1616FEADA
:10189C00514189B2A2F80414C9E73E2B09D8590862
:1018AC0013F0010F00D00131890289B2A2F80C1497
:1018BC009DE6590913F01F0F00D101396FEAC1637E
:1018CC006FEA53439BB2A2F80C3490E6012A7FF4E2
:1018DC008EAEB5F8502092B22A44217802EB011258
:1018EC009BB2A2F80C3482E610B45C0800EB420008
:1018FC0000F5806044B130F8042B0A70C2F3072263
:10190C004A700231013CF5E713F0010F01D0038856
:10191C000B7010BC7047000010B504460E4B1878C5
:10192C004FF47A73B3FBF0F30C4A1068B0FBF3F08E
:10193C0000F038FC68B90F2C01D901200AE0002214
:10194C0021464FF0FF3000F0EBFB054B1C600020F4
:10195C0000E0012010BD00BF4E000020540000200C
:10196C005000002008B5074A136843F010031360B9
:10197C00032000F0C3FB0020FFF7CEFFFEF726FE8E
:10198C00002008BD00200240034A1168034B1B785D
:10199C000B441360704700BFB00800204E000020BD
:1019AC00014B1868704700BFB008002038B50446DA
:1019BC00FFF7F6FF0546B4F1FF3F02D0044B1B784E
:1019CC001C44FFF7EDFF401BA042FAD338BD00BF0B
:1019DC004E00002082B0084B1B68084AA2FB032370
:1019EC005B0A00FB03F3019300BF019B5A1E01929B
:1019FC00002BF9D102B0704754000020D34D621077
:101A0C00002800F0F18170B582B00446036813F031
:101A1C00010F2CD0AA4B5B6803F00C03042B1DD0D8
:101A2C00A74B5B6803F00C03082B12D06368B3F56B
:101A3C00803F41D0002B55D103F1804303F5043393
:101A4C001A6822F480321A601A6822F480221A6012
:101A5C0037E09B4B5B6813F4803FE7D0984B1B68D7
:101A6C0013F4003F03D06368002B00F0BF812368A0
:101A7C0013F0020F75D0924B5B6813F00C0F5FD014
:101A8C008F4B5B6803F00C03082B54D02369002B9D
:101A9C0000F089808B4B01221A60FFF781FF05460D
:101AAC00874B1B6813F0020F74D1FFF779FF401BB3
:101ABC000228F5D903209EE1814A136843F4803350
:101ACC001360636843B3FFF76BFF05467C4B1B68E1
:101ADC0013F4003FCBD1FFF763FF401B6428F5D90B
:101AEC00032088E1B3F5A02F09D0754B1A6822F4B6
:101AFC0080321A601A6822F480221A60E1E703F13E
:101B0C008043A3F53C331A6842F480221A601A68A9
:101B1C0042F480321A60D4E7FFF742FF0546684B67
:101B2C001B6813F4003FA2D0FFF73AFF401B642858
:101B3C00F5D903205FE1624B5B6813F4803FA5D1BC
:101B4C005F4B1B6813F0020F03D02369012B40F08D
:101B5C004F815B4A136823F0F803616943EAC103C0
:101B6C001360236813F0080F32D0A369002B45D003
:101B7C00554B01221A60FFF713FF0546504B5B6A69
:101B8C0013F0020F21D1FFF70BFF401B0228F5D9F0
:101B9C00032030E14A4A136823F0F803616943EAF1
:101BAC00C1031360DDE7474B00221A60FFF7F8FE14
:101BBC000546434B1B6813F0020FD2D0FFF7F0FE23
:101BCC00401B0228F5D9032015E10120FFF702FF85
:101BDC00236813F0040F00F09780394BDB6913F086
:101BEC00805F1DD1364BDA6942F08052DA61DB69D5
:101BFC0003F080530193019B012512E0324B00222C
:101C0C001A60FFF7CDFE05462D4B5B6A13F0020FF1
:101C1C00DED0FFF7C5FE401B0228F5D90320EAE011
:101C2C0000252A4B1B6813F4807F11D0E368012B2D
:101C3C0022D0002B38D103F1804303F504331A6A08
:101C4C0022F001021A621A6A22F004021A6218E0E7
:101C5C001E4A136843F480731360FFF7A1FE064617
:101C6C001A4B1B6813F4807FE0D1FFF799FE801BA1
:101C7C006428F5D90320BEE0114A136A43F001032E
:101C8C001362E36873B3FFF78BFE06460C4B1B6ABB
:101C9C0013F0020F37D1FFF783FE801B41F288331C
:101CAC009842F3D90320A6E0052B11D0044B1A6AF5
:101CBC0022F001021A621A6A22F004021A62E0E7A8
:101CCC00001002400000424280044242007000407A
:101CDC004D4B1A6A42F004021A621A6A42F001026F
:101CEC001A62CEE7FFF75CFE0646474B1B6A13F001
:101CFC00020F08D0FFF754FE801B41F28833984244
:101D0C00F3D9032077E0E5B9E369002B72D03E4AA2
:101D1C00526802F00C02082A56D0022B17D03B4B0B
:101D2C0000221A60FFF73CFE0446374B1B6813F089
:101D3C00007F47D0FFF734FE001B0228F5D90320A3
:101D4C0059E0314AD36923F08053D361DCE72F4B40
:101D5C0000221A60FFF724FE05462B4B1B6813F07C
:101D6C00007F06D0FFF71CFE401B0228F5D903208C
:101D7C0041E0236AB3F5803F1AD023494B6823F422
:101D8C007413226A606A024313434B601F4B012297
:101D9C001A60FFF705FE04461B4B1B6813F0007F0F
:101DAC000ED1FFF7FDFD001B0228F5D9032022E020
:101DBC00154A536823F40033A1680B435360DCE7E6
:101DCC00002018E0002016E0012B16D00E4B5B68AB
:101DDC0003F48031226A914211D103F47013626AC8
:101DEC0093420ED1002006E001207047012002E052
:101DFC00012000E0002002B070BD0120FBE70120B3
:101E0C00F9E70120F7E700BF0010024060004242F2
:101E1C0086B0164B0FCB0DF1180C0CE90F0040F2ED
:101E2C000123ADF80430124B5B6803F00C02082A56
:101E3C0002D0104806B07047C3F38342624412F8D4
:101E4C00102C13F4803F0CD0094B5B68C3F3404358
:101E5C00634413F8143C074800FB02F0B0FBF3F0AA
:101E6C00E8E7054800FB02F0E4E700BF682E000835
:101E7C000010024000127A0000093D00002800F01A
:101E8C00A08070B50D460446524B1B6803F0070347
:101E9C008B420BD24F4A136823F007030B4313609A
:101EAC00136803F007038B4240F08D80236813F016
:101EBC00020F17D013F0040F04D0474A536843F4B1
:101ECC00E0635360236813F0080F04D0424A536850
:101EDC0043F460535360404A536823F0F003A16805
:101EEC000B435360236813F0010F31D06368012B4F
:101EFC0020D0022B25D0384A126812F0020F64D081
:101F0C0035494A6822F0030213434B60FFF748FD42
:101F1C000646314B5B6803F00C036268B3EB820F2F
:101F2C0016D0FFF73DFD801B41F288339842F0D963
:101F3C00032045E0284A126812F4003FE0D101204A
:101F4C003EE0254A126812F0007FD9D1012037E01B
:101F5C00204B1B6803F00703AB420AD91D4A1368D8
:101F6C0023F007032B431360136803F00703AB4202
:101F7C002DD1236813F0040F06D0174A536823F4AD
:101F8C00E063E1680B435360236813F0080F07D03C
:101F9C00114A536823F46053216943EAC103536027
:101FAC00FFF736FF0C4B5B68C3F303130B4AD35C90
:101FBC00D8400B4B18600B4B1868FFF7ADFC00209A
:101FCC0070BD012070470120FAE70120F8E70120DD
:101FDC00F6E700BF00200240001002407C2E0008F3
:101FEC00540000205000002070B582B004460368F5
:101FFC0013F0010F34D03E4BDB6913F0805F47D1F7
:10200C003B4BDA6942F08052DA61DB6903F08053B2
:10201C000193019B0125374B1B6813F4807F39D04A
:10202C00334B1B6A13F4407311D0626802F4407294
:10203C009A420CD02E4A136A23F440702E49012682
:10204C000E6000260E60106213F0010F36D1284A84
:10205C00136A23F4407361680B431362002D3ED165
:10206C00236813F0020F06D0214A536823F440432F
:10207C00A1680B435360236813F0100F34D01C4A33
:10208C00536823F48003E1680B43536000202CE079
:10209C000025C0E7174A136843F480731360FFF7F9
:1020AC007FFC0646134B1B6813F4807FB8D1FFF7F7
:1020BC0077FC801B6428F5D9032016E0FFF770FC31
:1020CC0006460B4B1B6A13F0020FC0D1FFF768FCDE
:1020DC00801B41F288339842F3D9032005E0D36981
:1020EC0023F08053D361BBE7002002B070BD00BF6A
:1020FC00001002400070004040044242074AD3687E
:10210C0023F4E0631B041B0C000200F4E0600343A7
:10211C0043F0BF6343F40033D360704700ED00E03D
:10212C0030B4174BDB68C3F30223C3F10704042C50
:10213C0028BF04241D1D062D18D9033B4FF0FF3575
:10214C0005FA04F421EA0401994005FA03F322EAA2
:10215C000303194300280BDB0901C9B200F16040ED
:10216C0000F5614080F8001330BC70470023E5E7B0
:10217C0000F00F000901C9B2024B1954F4E700BF7B
:10218C0000ED00E014ED00E0002807DB00F01F027A
:10219C00400901239340024A42F82030704700BFA7
:1021AC0000E100E00138B0F1807F0AD2064B5860A4
:1021BC00064AF02182F823100020986007221A604A
:1021CC0070470120704700BF10E000E000ED00E018
:1021DC000F4B1A6842F001021A6059680D4A0A4006
:1021EC005A601A6822F0847222F480321A601A68DB
:1021FC0022F480221A605A6822F4FE025A604FF4CC
:10220C001F029A60044B4FF000629A60704700BF47
:10221C00001002400000FFF800ED00E098B108B596
:10222C000346D0F8B40210B10020C3F8B40209B1CF
:10223C00C3F8B012012183F89C121A701846FEF7ED
:10224C0091F8002008BD0220704719B1C0F8B412F3
:10225C00002070470220704708B5FEF7B7F8002041
:10226C0008BD08B5D0F8B4322BB11B68984700B93B
:10227C0008BD0220FCE70220FAE708B5D0F8B4321A
:10228C005B689847002008BD38B5044600F52A75F0
:10229C00284600F034F90123C4F89432B4F8AE3275
:1022AC00C4F8983294F8A81201F01F03012B0ED039
:1022BC00022B11D02BB101F080012046FEF7A1F8C2
:1022CC0003E02946204600F0C9FA002038BD294613
:1022DC00204600F0F7FAF8E72946204600F022FBEA
:1022EC00F3E738B504460D4691BB1346D0F894225B
:1022FC00032A03D0052A24D0084633E0D0F8601115
:10230C00D0F8642191420DD9891AC0F860118A4223
:10231C0006D98AB21946204600F026FC284621E050
:10232C0092B2F7E7D0F8B4321B691BB190F89C223B
:10233C00032A04D0204600F01FFC284612E09847E0
:10234C00F8E70021C0F89412FEF75BF8284609E084
:10235C00D0F8B4329B6933B190F89C22032A04D193
:10236C009847002038BD0220FCE70220FAE738B578
:10237C0004460D46002953D11346D0F89422022A64
:10238C000CD0042A00D01AB980212046FEF739F867
:10239C0094F8A032012B3ED0284638BD016A426A1F
:1023AC0091421BD8C169B1FBF2F302FB13132BB999
:1023BC008A4203D8D0F8983299421CD3D4F8B4325C
:1023CC00DB681BB194F89C22032A21D08021204683
:1023DC00FEF717F8204600F0DAFBD9E78A1A0262FA
:1023EC0092B2194600F0B8FB00231A461946204653
:1023FC00FEF73AF8CCE70022114600F0ADFB0021C5
:10240C00C4F898120B460A462046FEF72DF8BFE793
:10241C0020469847DAE7002384F8A0322846BCE728
:10242C00D0F8B4325B6933B190F89C22032A04D102
:10243C0098470020B1E70220AFE70220ADE770B566
:10244C000446402300221146FDF7C8FF0125C4F8BD
:10245C0058514026C4F8646133460022802120463E
:10246C00FDF7BCFFA561666284F89C520023C4F89A
:10247C0094326360C4F8A432D4F8B8322BB1D4F8D7
:10248C00B4325B68002120469847002070BD01746F
:10249C000020704790F89C3280F89D32042380F81D
:1024AC009C320020704790F89C32042B01D0002005
:1024BC00704790F89D3280F89C32F8E708B590F898
:1024CC009C32032B01D0002008BDD0F8B432DB695C
:1024DC00002BF8D09847F6E7034600201A781AB17B
:1024EC000130C0B20133F9E7704708B54B88012BB6
:1024FC0000D008BDC0F8A43200F03EFBF9E70B7821
:10250C0003704B7843708B78CA7803EB02234380BB
:10251C000B794A7903EB022383808B79CA7903EB1D
:10252C000223C380704710B504468021FDF769FF74
:10253C0000212046FDF765FF10BD30B583B0054680
:10254C000C460023ADF806304A88130A013B062BD3
:10255C0000F2A480DFE803F004182CA2A2869300FA
:10256C00D0F8B0321B680DF10601007C9847BDF81D
:10257C0006201AB1E388002B40F09480E388002BEE
:10258C0000F09A8003B030BD037C43B9D0F8B4326C
:10259C009B6A0DF10600984702234370E7E7D0F8D9
:1025AC00B432DB6A0DF10600984702234370DEE774
:1025BC00D2B2052A52D8DFE802F003101D2A3744A4
:1025CC00D0F8B0325B6823B10DF10601007C98475E
:1025DC00CDE72146FFF7A7FFD4E7D0F8B0329B68D0
:1025EC0023B10DF10601007C9847C0E72146FFF7A7
:1025FC009AFFC7E7D0F8B032DB6823B10DF10601C2
:10260C00007C9847B3E72146FFF78DFFBAE7D0F877
:10261C00B0321B6923B10DF10601007C9847A6E787
:10262C002146FFF780FFADE7D0F8B0325B6923B1EC
:10263C000DF10601007C984799E72146FFF773FFDF
:10264C00A0E7D0F8B0329B6923B10DF10601007CF4
:10265C0098478CE72146FFF766FF93E72146FFF783
:10266C0062FF8FE7037C33B9D0F8B4325B6B0DF1AA
:10267C00060098477BE72146FFF755FF82E7037C6E
:10268C0043B9D0F8B4321B6B0DF106009847072301
:10269C0043706CE72146FFF746FF73E72146FFF7CF
:1026AC0042FF6FE79A4228BF1A46ADF80620014652
:1026BC00284600F044FA61E7284600F05DFA61E72D
:1026CC0038B504468B88F3B9CB88E3B94B887F2B9C
:1026DC0019D803F07F0590F89C32032B0CD080F8AE
:1026EC009E522946FDF7B0FE204600F045FA35B162
:1026FC00022384F89C3209E0FFF715FF06E0012362
:10270C0084F89C3202E02046FFF70DFF38BD000034
:10271C0038B504460D468978284B197001290ED816
:10272C0090F89C32022B0ED0032B21D02946FFF7B8
:10273C00FAFE224B19782046FFF79FFD02E029464E
:10274C00FFF7F1FE38BD81B14160032380F89C3264
:10275C00FFF787FD022803D0204600F00DFAF1E7C1
:10276C0029462046FFF7DFFEECE700F005FAE9E723
:10277C0089B1436899421DD0D9B2FFF77EFD0F4B4A
:10278C00197861602046FFF76CFD02280DD02046B9
:10279C0000F0F2F9D6E7022380F89C324160FFF793
:1027AC006CFD204600F0E8F9CCE729462046FFF7FF
:1027BC00BAFEC7E700F0E0F9C4E700BF7C010020D7
:1027CC0008B5CB88012B0AD190F89C32022B09D981
:1027DC00032B09D10122011D00F0B1F901E0FFF733
:1027EC00A2FE08BD5BB213B9FFF79DFEF9E70146E7
:1027FC00002341F8083F012200F0A1F9F1E708B5E8
:10280C0090F89C32013B022B12D8CB88022B0CD1B6
:10281C000123C360D0F8A4320BB10323C36002229E
:10282C0000F10C0100F08BF908BDFFF77CFEFBE713
:10283C00FFF779FEF8E708B590F89C32013B022BC4
:10284C0009D84B88012B00D008BD0023C0F8A43256
:10285C0000F092F9F8E7FFF766FEF5E708B50B789C
:10286C0003F06003202B05D0402B03D043B1FFF7BE
:10287C005AFE03E0D0F8B4329B689847002008BD9C
:10288C004B78092B1BD8DFE803F011171A141A0820
:10289C00051A0E0BFFF751FEF0E7FFF711FFEDE7FE
:1028AC00FFF736FFEAE7FFF78BFFE7E7FFF7A7FF36
:1028BC00E4E7FFF71AFEE1E7FFF7BDFFDEE7FFF7FE
:1028CC0032FEDBE738B505460C460B7803F06003A7
:1028DC00202B06D0402B04D01BB1FFF724FE002088
:1028EC0038BD95F89C32013B022B16D82379012B6D
:1028FC000ED8D5F8B4329B68214628469847E38811
:10290C00002BECD10028EAD1284600F035F9E6E797
:10291C0021462846FFF707FEE1E721462846FFF748
:10292C0002FEDCE770B505468B880C7804F0600479
:10293C00202C07D0DAB2402C04D05CB1FFF7F3FDA9
:10294C00002405E0D5F8B4329B682846984700244B
:10295C00204670BD202C09D04E78012E33D0032E8A
:10296C000AD0002E55D0FFF7DEFDF1E7D0F8B432D7
:10297C009B6898470446EBE790F89C32022B04D0F6
:10298C00032B11D0FFF7CFFDE2E70AB1802A03D168
:10299C002846FFF7C8FDDBE71146FDF732FD802125
:1029AC002846FDF72EFDD3E74B8823B91AB1802AB0
:1029BC0001D0CB881BB1284600F0DEF8C8E71146E1
:1029CC00FDF71FFDF7E790F89C32022B04D0032B88
:1029DC0011D0FFF7A8FDBBE70AB1802A03D1284626
:1029EC00FFF7A1FDB4E71146FDF70BFD802128464A
:1029FC00FDF707FDACE74B88002BA9D112F07F0F38
:102A0C0003D1284600F0B8F8A2E71146FDF701FD06
:102A1C00F7E790F89C02022806D0032829D0284614
:102A2C00FFF781FD344693E70AB1802A13D113F0E6
:102A3C00800F15D102F07F0202EB8202910001F5AA
:102A4C00A8712944043100230B600222284600F0AF
:102A5C0076F834467CE72846FFF765FD344677E781
:102A6C0002F07F0202EB8202910010312944043102
:102A7C00E9E75BB2002B1FDB02F00F0000EB8000DC
:102A8C0005EB8000D0F8580120B3002B27DB02F0B7
:102A9C007F0303EB83039C0004F5A8742C440434DB
:102AAC000AB1802A24D10023236002222146284621
:102ABC0000F045F834464BE702F00F0000EB8000C5
:102ACC0005EB800080690028DFD12846FFF72BFD3D
:102ADC0034463DE72846FFF726FD344638E702F03A
:102AEC007F0303EB83039C0010342C440434D7E79E
:102AFC0011462846FDF795FC10B101232360D4E75D
:102B0C0000232360D1E7C8B170B50D4616460446C4
:102B1C00FFF7E2FC013040003080287003236B701B
:102B2C00022307E001345A1CD2B2E8540233DBB260
:102B3C000021A95420780028F4D170BD704710B53D
:102B4C0013460222C0F89422C36103620A46002194
:102B5C00FDF782FC002010BD08B513460A46002183
:102B6C00FDF77AFC002008BD08B513460A46002183
:102B7C00FDF77AFC002008BD08B50423C0F8943298
:102B8C0000231A461946FDF767FC002008BD08B55E
:102B9C000523C0F8943200231A461946FDF764FC4D
:102BAC00002008BD2223038000487047C00000208D
:102BBC002223038000487047E40000202223038076
:102BCC000048704720010020D0F8B832002018735C
:102BDC00704700000A23038000487047140100204E
:102BEC0070B582B0D0F8B8520023ADF806300C782E
:102BFC0014F0600425D0202C72D14B78023B092BA9
:102C0C001BD8DFE803F014091A1A1A1A1A1A0F053E
:102C1C008B782B60002466E001222946FFF78FFF9A
:102C2C00002460E04B881B0A6B6000245BE00122EF
:102C3C00291DFFF784FF002455E0FFF774FC0224E4
:102C4C0051E04E780B2E47D8DFE806F00646464694
:102C5C004646154646462D3B90F89C32032B03D036
:102C6C00FFF761FC02243EE002220DF10601FFF7A2
:102C7C0066FF344637E04B881B0A222B09D0212BE8
:102C8C000DD1CA88092A28BF09221849FFF757FF16
:102C9C0029E0CA882D2A28BF2D221549F6E7FFF70F
:102CAC0042FC02241FE090F89C32032B03D0FFF768
:102CBC003AFC022417E0012205F10801FFF73FFF5F
:102CCC0011E090F89C32032B02D18B78AB600AE0B8
:102CDC00FFF729FC022406E0FFF725FC022402E0A2
:102CEC00FFF721FC0224204602B070BD0801002031
:102CFC005800002010B504468121FDF77AFB002313
:102D0C00E362D4F8B80220B1FDF7BAFB0023C4F893
:102D1C00B832002010BD10B50446082303228121CF
:102D2C00FDF75CFB0123E3621020FDF7A5FBC4F863
:102D3C00B80218B100230373184610BD0220FCE73B
:102D4C0010B5D0F8B84290F89C32032B01D000207B
:102D5C0010BD237B002BFAD10123237313460A46A3
:102D6C008121FDF779FBF2E7002103E00B4B5B5867
:102D7C00435004310A480B4B42189A42F6D30A4A84
:102D8C0002E0002342F8043B084B9A42F9D3FFF7C8
:102D9C001FFA00F00FF8FDF721FA7047942E000887
:102DAC00000000204401002044010020B408002051
:102DBC00FEE7000070B500260C4D0D4C641BA410F2
:102DCC00A64209D100F01AF800260A4D0A4C641BE1
:102DDC00A410A64205D170BD55F8043B98470136A6
:102DEC00EEE755F8043B98470136F2E78C2E0008C5
:102DFC008C2E00088C2E0008902E0008F8B500BF11
:102E0C00F8BC08BC9E467047F8B500BFF8BC08BCBF
:042E1C009E46704717
:102E200053544D33322048756D616E20696E746560
:102E3000726661636500000053544D6963726F658B
:102E40006C656374726F6E69637300004849442057
:102E5000436F6E666967000048494420496E746597
:102E60007266616365000000020304050607080935
:102E70000A0B0C0D0E0F10100000000000000000E7
:0C2E80000000000001020304060708091E
:042E8C003101000808
:042E90000D01000828
:102E9400910400089D0400084D0500082905000858
:102EA40015050008690500088D05000812010002D7
:102EB4000000004083042B570002010203010000BC
:102EC400040309041A0300000000000000000000CD
:102ED40000000000000000000000000000000100ED
:102EE400100000000024F40005010906A1010507F3
:102EF40019E029E71500250175019508810295015E
:102F040075088103950675081500256505071900E0
:102F140029658100C0000000232D0008012D000850
:102F2400ED2B00080000000000000000D52B000875
:102F3400000000000000000000000000000000008D
:102F4400BD2B0008B12B0008C92B0008E12B000899
:102F540009022200010100E032090400000103011A
:102F64000100092111010001222D00070581030838
:102F7400000A000009022200010100E032090400F5
:102F8400000103010200092111010001222D0007A3
:102F94000581030800070000092111010001222D09
:102FA400000000000A0600020000004001000000CA
:102FB40009022200010100E03209040000010301BA
:102FC4000200092111010001222D000705810308D7
:042FD400000A0000EF
:0400000508002D754D
:00000001FF
